{
  "address": "0x5d94D5eE053a3aF12fcB508Ce9Fa8d8f887Cd92A",
  "abi": [
    {
      "inputs": [],
      "stateMutability": "nonpayable",
      "type": "constructor"
    },
    {
      "inputs": [],
      "name": "helloWorld",
      "outputs": [
        {
          "internalType": "string",
          "name": "",
          "type": "string"
        }
      ],
      "stateMutability": "view",
      "type": "function"
    },
    {
      "inputs": [
        {
          "internalType": "string",
          "name": "newText",
          "type": "string"
        }
      ],
      "name": "setText",
      "outputs": [],
      "stateMutability": "nonpayable",
      "type": "function"
    }
  ],
  "transactionHash": "0xc03995888948b88249fb0496a1a5dc47b378d616335f6c6ec51107e95490e07a",
  "args": [],
  "numDeployments": 1,
  "solcInputHash": "2b408c443245e02f424d39ac172f7dd7",
  "bytecode": "0x608060405234801561001057600080fd5b5060408051808201909152600b81526a12195b1b1bc815dbdc9b1960aa1b602082015260009061004090826100e7565b506101a6565b634e487b7160e01b600052604160045260246000fd5b600181811c9082168061007057607f821691505b60208210810361009057634e487b7160e01b600052602260045260246000fd5b50919050565b601f8211156100e2576000816000526020600020601f850160051c810160208610156100bf5750805b601f850160051c820191505b818110156100de578281556001016100cb565b5050505b505050565b81516001600160401b0381111561010057610100610046565b6101148161010e845461005c565b84610096565b602080601f83116001811461014957600084156101315750858301515b600019600386901b1c1916600185901b1785556100de565b600085815260208120601f198616915b8281101561017857888601518255948401946001909101908401610159565b50858210156101965787850151600019600388901b60f8161c191681555b5050505050600190811b01905550565b6103a7806101b56000396000f3fe608060405234801561001057600080fd5b50600436106100365760003560e01c80635d3a1f9d1461003b578063c605f76c14610050575b600080fd5b61004e610049366004610126565b61006e565b005b61005861007e565b60405161006591906101d7565b60405180910390f35b600061007a82826102b1565b5050565b60606000805461008d90610226565b80601f01602080910402602001604051908101604052809291908181526020018280546100b990610226565b80156101065780601f106100db57610100808354040283529160200191610106565b820191906000526020600020905b8154815290600101906020018083116100e957829003601f168201915b5050505050905090565b634e487b7160e01b600052604160045260246000fd5b60006020828403121561013857600080fd5b813567ffffffffffffffff8082111561015057600080fd5b818401915084601f83011261016457600080fd5b81358181111561017657610176610110565b604051601f8201601f19908116603f0116810190838211818310171561019e5761019e610110565b816040528281528760208487010111156101b757600080fd5b826020860160208301376000928101602001929092525095945050505050565b60006020808352835180602085015260005b81811015610205578581018301518582016040015282016101e9565b506000604082860101526040601f19601f8301168501019250505092915050565b600181811c9082168061023a57607f821691505b60208210810361025a57634e487b7160e01b600052602260045260246000fd5b50919050565b601f8211156102ac576000816000526020600020601f850160051c810160208610156102895750805b601f850160051c820191505b818110156102a857828155600101610295565b5050505b505050565b815167ffffffffffffffff8111156102cb576102cb610110565b6102df816102d98454610226565b84610260565b602080601f83116001811461031457600084156102fc5750858301515b600019600386901b1c1916600185901b1785556102a8565b600085815260208120601f198616915b8281101561034357888601518255948401946001909101908401610324565b50858210156103615787850151600019600388901b60f8161c191681555b5050505050600190811b0190555056fea26469706673582212201fd5455b1f03758682cba5396df8885f41e19f6f3a2d55ebd33b7d6f5479169564736f6c63430008180033",
  "devdoc": {
    "kind": "dev",
    "methods": {},
    "version": 1
  },
  "userdoc": {
    "kind": "user",
    "methods": {},
    "version": 1
  },
  "storageLayout": {
    "storage": [
      {
        "astId": 3,
        "contract": "contracts/HelloWorld.sol:HelloWorld",
        "label": "text",
        "offset": 0,
        "slot": "0",
        "type": "t_string_storage"
      }
    ],
    "types": {
      "t_string_storage": {
        "encoding": "bytes",
        "label": "string",
        "numberOfBytes": "32"
      }
    }
  }
}